:0300000002009F5C
:0C009F00787FE4F6D8FD75815A0200E677
:04036400025900003A
:0700030075A0FFE4FEFF22DF
:06036D00E4F5A0FEFF22F2
:10033200758901758C3C758AB075A882D28CE4FEF1
:02034200FF2298
:03000B000202DB13
:1002DB00C0E0C0D0D3E55A9414E5596480948040B3
:1002EB00100524E52470020523755900755A00800A
:1002FB0012C28C055AE55A70020559758C3C758AE9
:08030B00B0D28CD0D0D0E0325A
:100248001203321203447BFF7A0079037557007555
:100258005802E4FDFC1203137BFF7A03796D75578E
:10026800007558057D017C0012031312012BD3E59C
:10027800249414E5236480948040097BFF7A0079F4
:10028800031201EED3E524943CE523648094804076
:06029800DA12035480D5C8
:04036800022300006C
:1003440012029EEF4E60057EFF7FFF22E4FEFF2235
:1003540012029EEF4E60057EFF7FFF22E4FEFF2225
:10029E00E4FFFEEF75F003A42437F876FF0876032B
:1002AE00087673EF75F003A42408F876FF0876033A
:1002BE00087673EF25E02425F874FFF608F60FBFD5
:0C02CE0000010EEF64084E70CAE4FEFF51
:0102DA002201
:10031300ED75F003A42437F8A60308A60208A60186
:0F032300ED25E02425F8A65708A658E4FEFF2292
:0601EE008B528A53895474
:1001F400E4FFFEEF75F003A42437F8860308E6FA5B
:1002040008E6F9E5528553838554826B7008E965E5
:10021400827003EA6583701DEF75F003A42437F838
:1002240076FF087603087673EF25E02425F874FF3B
:10023400F608F6800B0FBF00010EEF64084E70B392
:03024400E4FEFFD6
:010247002294
:10018F00E4F554F555F583F582AF82EF25E024258C
:10019F00F8E6FC08E6FDF47002ECF46035AE23AF30
:1001AF002412000EED4C702AE58275F003A424375B
:1001BF00F8860308E6FA08E6F9E55575F003A42476
:1001CF0008F8A60308A60208A6010555E555700212
:0E01DF000554A3E5826408458370AEE4FEFF7C
:0101ED0022EF
:10012B00E4F552F553E55375F003A42408F8860360
:10013B0008E6FA08E6F9EB8A8389827BFF7A037972
:10014B0073F4700A74736582700474036583602D95
:10015B00E55375F003A42408F808E6FA08E6F9124B
:10016B000044E55375F003A42408F876FF087603E2
:10017B000876730553E55370AC055280A812018FB6
:03018B00E4FEFF90
:01018E00224E
:04037300E4FEFF2283
:1000AB00020248E493A3F8E493A34003F68001F221
:1000BB0008DFF48029E493A3F85407240CC8C33356
:1000CB00C4540F4420C8834004F456800146F6DF25
:1000DB00E4800B0102040810204080900364E47E4E
:1000EB00019360BCA3FF543F30E509541FFEE4931A
:1000FB00A360010ECF54C025E060A840B8E493A3E1
:10010B00FAE493A3F8E493A3C8C582C8CAC583CA0B
:10011B00F0A3C8C582C8CAC583CADFE9DEE780BEC3
:01036C000090
:10000E00C2D5EC30E709B2D5E4C39DFDE49CFCEE0D
:10001E0030E715B2D5E4C39FFFE49EFE12004AC33B
:10002E00E49DFDE49CFC800312004A30D507C3E436
:06003E009FFFE49EFE227C
:060044008A838982E47347
:10004A00BC000BBE0029EF8DF084FFADF022E4CC9A
:10005A00F875F008EF2FFFEE33FEEC33FCEE9DEC63
:10006A00984005FCEE9DFE0FD5F0E9E4CEFD22EDA9
:10007A00F8F5F0EE8420D21CFEADF075F008EF2FF3
:10008A00FFED33FD4007985006D5F0F222C398FDE4
:05009A000FD5F0EA2281
:00000001FF
